{
  "_format": "hh-sol-artifact-1",
  "contractName": "optiMeme",
  "sourceName": "contracts/OptiMeme.sol",
  "abi": [
    {
      "inputs": [
        {
          "internalType": "uint256",
          "name": "index",
          "type": "uint256"
        }
      ],
      "name": "_requestRandomNumber",
      "outputs": [
        {
          "internalType": "uint256",
          "name": "",
          "type": "uint256"
        }
      ],
      "stateMutability": "nonpayable",
      "type": "function"
    },
    {
      "inputs": [],
      "name": "drawForMint",
      "outputs": [
        {
          "internalType": "uint256",
          "name": "",
          "type": "uint256"
        }
      ],
      "stateMutability": "nonpayable",
      "type": "function"
    },
    {
      "inputs": [
        {
          "internalType": "address",
          "name": "account",
          "type": "address"
        },
        {
          "internalType": "uint256",
          "name": "id",
          "type": "uint256"
        },
        {
          "internalType": "uint256",
          "name": "amount",
          "type": "uint256"
        },
        {
          "internalType": "bytes",
          "name": "data",
          "type": "bytes"
        }
      ],
      "name": "mint",
      "outputs": [],
      "stateMutability": "nonpayable",
      "type": "function"
    },
    {
      "inputs": [],
      "stateMutability": "nonpayable",
      "type": "constructor"
    },
    {
      "anonymous": false,
      "inputs": [
        {
          "indexed": true,
          "internalType": "address",
          "name": "account",
          "type": "address"
        },
        {
          "indexed": true,
          "internalType": "address",
          "name": "operator",
          "type": "address"
        },
        {
          "indexed": false,
          "internalType": "bool",
          "name": "approved",
          "type": "bool"
        }
      ],
      "name": "ApprovalForAll",
      "type": "event"
    },
    {
      "inputs": [
        {
          "internalType": "address",
          "name": "to",
          "type": "address"
        },
        {
          "internalType": "uint256[]",
          "name": "ids",
          "type": "uint256[]"
        },
        {
          "internalType": "uint256[]",
          "name": "amounts",
          "type": "uint256[]"
        },
        {
          "internalType": "bytes",
          "name": "data",
          "type": "bytes"
        }
      ],
      "name": "mintBatch",
      "outputs": [],
      "stateMutability": "nonpayable",
      "type": "function"
    },
    {
      "anonymous": false,
      "inputs": [
        {
          "indexed": true,
          "internalType": "address",
          "name": "previousOwner",
          "type": "address"
        },
        {
          "indexed": true,
          "internalType": "address",
          "name": "newOwner",
          "type": "address"
        }
      ],
      "name": "OwnershipTransferred",
      "type": "event"
    },
    {
      "inputs": [],
      "name": "renounceOwnership",
      "outputs": [],
      "stateMutability": "nonpayable",
      "type": "function"
    },
    {
      "inputs": [
        {
          "internalType": "address",
          "name": "from",
          "type": "address"
        },
        {
          "internalType": "address",
          "name": "to",
          "type": "address"
        },
        {
          "internalType": "uint256[]",
          "name": "ids",
          "type": "uint256[]"
        },
        {
          "internalType": "uint256[]",
          "name": "amounts",
          "type": "uint256[]"
        },
        {
          "internalType": "bytes",
          "name": "data",
          "type": "bytes"
        }
      ],
      "name": "safeBatchTransferFrom",
      "outputs": [],
      "stateMutability": "nonpayable",
      "type": "function"
    },
    {
      "inputs": [
        {
          "internalType": "address",
          "name": "from",
          "type": "address"
        },
        {
          "internalType": "address",
          "name": "to",
          "type": "address"
        },
        {
          "internalType": "uint256",
          "name": "id",
          "type": "uint256"
        },
        {
          "internalType": "uint256",
          "name": "amount",
          "type": "uint256"
        },
        {
          "internalType": "bytes",
          "name": "data",
          "type": "bytes"
        }
      ],
      "name": "safeTransferFrom",
      "outputs": [],
      "stateMutability": "nonpayable",
      "type": "function"
    },
    {
      "inputs": [
        {
          "internalType": "address",
          "name": "operator",
          "type": "address"
        },
        {
          "internalType": "bool",
          "name": "approved",
          "type": "bool"
        }
      ],
      "name": "setApprovalForAll",
      "outputs": [],
      "stateMutability": "nonpayable",
      "type": "function"
    },
    {
      "inputs": [
        {
          "internalType": "string",
          "name": "newuri",
          "type": "string"
        }
      ],
      "name": "setURI",
      "outputs": [],
      "stateMutability": "nonpayable",
      "type": "function"
    },
    {
      "anonymous": false,
      "inputs": [
        {
          "indexed": true,
          "internalType": "address",
          "name": "operator",
          "type": "address"
        },
        {
          "indexed": true,
          "internalType": "address",
          "name": "from",
          "type": "address"
        },
        {
          "indexed": true,
          "internalType": "address",
          "name": "to",
          "type": "address"
        },
        {
          "indexed": false,
          "internalType": "uint256[]",
          "name": "ids",
          "type": "uint256[]"
        },
        {
          "indexed": false,
          "internalType": "uint256[]",
          "name": "values",
          "type": "uint256[]"
        }
      ],
      "name": "TransferBatch",
      "type": "event"
    },
    {
      "inputs": [
        {
          "internalType": "address",
          "name": "newOwner",
          "type": "address"
        }
      ],
      "name": "transferOwnership",
      "outputs": [],
      "stateMutability": "nonpayable",
      "type": "function"
    },
    {
      "anonymous": false,
      "inputs": [
        {
          "indexed": true,
          "internalType": "address",
          "name": "operator",
          "type": "address"
        },
        {
          "indexed": true,
          "internalType": "address",
          "name": "from",
          "type": "address"
        },
        {
          "indexed": true,
          "internalType": "address",
          "name": "to",
          "type": "address"
        },
        {
          "indexed": false,
          "internalType": "uint256",
          "name": "id",
          "type": "uint256"
        },
        {
          "indexed": false,
          "internalType": "uint256",
          "name": "value",
          "type": "uint256"
        }
      ],
      "name": "TransferSingle",
      "type": "event"
    },
    {
      "anonymous": false,
      "inputs": [
        {
          "indexed": false,
          "internalType": "string",
          "name": "value",
          "type": "string"
        },
        {
          "indexed": true,
          "internalType": "uint256",
          "name": "id",
          "type": "uint256"
        }
      ],
      "name": "URI",
      "type": "event"
    },
    {
      "inputs": [
        {
          "internalType": "uint256",
          "name": "max",
          "type": "uint256"
        },
        {
          "internalType": "uint256",
          "name": "randomNumber",
          "type": "uint256"
        }
      ],
      "name": "_randomToStamp",
      "outputs": [
        {
          "internalType": "uint256",
          "name": "",
          "type": "uint256"
        }
      ],
      "stateMutability": "pure",
      "type": "function"
    },
    {
      "inputs": [
        {
          "internalType": "address",
          "name": "account",
          "type": "address"
        },
        {
          "internalType": "uint256",
          "name": "id",
          "type": "uint256"
        }
      ],
      "name": "balanceOf",
      "outputs": [
        {
          "internalType": "uint256",
          "name": "",
          "type": "uint256"
        }
      ],
      "stateMutability": "view",
      "type": "function"
    },
    {
      "inputs": [
        {
          "internalType": "address[]",
          "name": "accounts",
          "type": "address[]"
        },
        {
          "internalType": "uint256[]",
          "name": "ids",
          "type": "uint256[]"
        }
      ],
      "name": "balanceOfBatch",
      "outputs": [
        {
          "internalType": "uint256[]",
          "name": "",
          "type": "uint256[]"
        }
      ],
      "stateMutability": "view",
      "type": "function"
    },
    {
      "inputs": [],
      "name": "baseUri",
      "outputs": [
        {
          "internalType": "string",
          "name": "",
          "type": "string"
        }
      ],
      "stateMutability": "view",
      "type": "function"
    },
    {
      "inputs": [],
      "name": "getMintedAmount",
      "outputs": [
        {
          "internalType": "uint256",
          "name": "",
          "type": "uint256"
        }
      ],
      "stateMutability": "view",
      "type": "function"
    },
    {
      "inputs": [
        {
          "internalType": "address",
          "name": "account",
          "type": "address"
        },
        {
          "internalType": "address",
          "name": "operator",
          "type": "address"
        }
      ],
      "name": "isApprovedForAll",
      "outputs": [
        {
          "internalType": "bool",
          "name": "",
          "type": "bool"
        }
      ],
      "stateMutability": "view",
      "type": "function"
    },
    {
      "inputs": [],
      "name": "maxTime",
      "outputs": [
        {
          "internalType": "uint256",
          "name": "",
          "type": "uint256"
        }
      ],
      "stateMutability": "view",
      "type": "function"
    },
    {
      "inputs": [],
      "name": "NftMinted",
      "outputs": [
        {
          "internalType": "uint256",
          "name": "",
          "type": "uint256"
        }
      ],
      "stateMutability": "view",
      "type": "function"
    },
    {
      "inputs": [],
      "name": "owner",
      "outputs": [
        {
          "internalType": "address",
          "name": "",
          "type": "address"
        }
      ],
      "stateMutability": "view",
      "type": "function"
    },
    {
      "inputs": [
        {
          "internalType": "bytes4",
          "name": "interfaceId",
          "type": "bytes4"
        }
      ],
      "name": "supportsInterface",
      "outputs": [
        {
          "internalType": "bool",
          "name": "",
          "type": "bool"
        }
      ],
      "stateMutability": "view",
      "type": "function"
    },
    {
      "inputs": [
        {
          "internalType": "uint256",
          "name": "_tokenId",
          "type": "uint256"
        }
      ],
      "name": "uri",
      "outputs": [
        {
          "internalType": "string",
          "name": "",
          "type": "string"
        }
      ],
      "stateMutability": "view",
      "type": "function"
    }
  ],
  "bytecode": "0x60806040523480156200001157600080fd5b506040518060400160405280600881526020017f6f7074694d656d6500000000000000000000000000000000000000000000000081525062000059816200009b60201b60201c565b506200007a6200006e620000b060201b60201c565b620000b860201b60201c565b6000600360146101000a81548160ff021916908315150217905550620004df565b8060029081620000ac9190620003f8565b5050565b600033905090565b6000600360009054906101000a900473ffffffffffffffffffffffffffffffffffffffff16905081600360006101000a81548173ffffffffffffffffffffffffffffffffffffffff021916908373ffffffffffffffffffffffffffffffffffffffff1602179055508173ffffffffffffffffffffffffffffffffffffffff168173ffffffffffffffffffffffffffffffffffffffff167f8be0079c531659141344cd1fd0a4f28419497f9722a3daafe3b4186f6b6457e060405160405180910390a35050565b600081519050919050565b7f4e487b7100000000000000000000000000000000000000000000000000000000600052604160045260246000fd5b7f4e487b7100000000000000000000000000000000000000000000000000000000600052602260045260246000fd5b600060028204905060018216806200020057607f821691505b602082108103620002165762000215620001b8565b5b50919050565b60008190508160005260206000209050919050565b60006020601f8301049050919050565b600082821b905092915050565b600060088302620002807fffffffffffffffffffffffffffffffffffffffffffffffffffffffffffffffff8262000241565b6200028c868362000241565b95508019841693508086168417925050509392505050565b6000819050919050565b6000819050919050565b6000620002d9620002d3620002cd84620002a4565b620002ae565b620002a4565b9050919050565b6000819050919050565b620002f583620002b8565b6200030d6200030482620002e0565b8484546200024e565b825550505050565b600090565b6200032462000315565b62000331818484620002ea565b505050565b5b8181101562000359576200034d6000826200031a565b60018101905062000337565b5050565b601f821115620003a85762000372816200021c565b6200037d8462000231565b810160208510156200038d578190505b620003a56200039c8562000231565b83018262000336565b50505b505050565b600082821c905092915050565b6000620003cd60001984600802620003ad565b1980831691505092915050565b6000620003e88383620003ba565b9150826002028217905092915050565b62000403826200017e565b67ffffffffffffffff8111156200041f576200041e62000189565b5b6200042b8254620001e7565b620004388282856200035d565b600060209050601f8311600181146200047057600084156200045b578287015190505b620004678582620003da565b865550620004d7565b601f19841662000480866200021c565b60005b82811015620004aa5784890151825560018201915060208501945060208101905062000483565b86831015620004ca5784890151620004c6601f891682620003ba565b8355505b6001600288020188555050505b505050505050565b61416080620004ef6000396000f3fe608060405234801561001057600080fd5b50600436106101415760003560e01c8063715018a6116100b8578063bd85b0391161007c578063bd85b03914610338578063dbdff2c114610368578063e985e9c514610386578063f242432a146103b6578063f2fde38b146103d2578063f5298aca146103ee57610141565b8063715018a6146102ce578063731133e9146102d85780638456cb59146102f45780638da5cb5b146102fe578063a22cb4651461031c57610141565b80632eb2c2d61161010a5780632eb2c2d61461020e5780633f4ba83a1461022a5780634e1273f4146102345780634f558e79146102645780635c975abb146102945780636b20c454146102b257610141565b8062fdd58e1461014657806301ffc9a71461017657806302fe5305146101a65780630e89341c146101c25780631f7fdffa146101f2575b600080fd5b610160600480360381019061015b919061262f565b61040a565b60405161016d919061267e565b60405180910390f35b610190600480360381019061018b91906126f1565b6104d2565b60405161019d9190612739565b60405180910390f35b6101c060048036038101906101bb919061289a565b6105b4565b005b6101dc60048036038101906101d791906128e3565b6105c8565b6040516101e9919061298f565b60405180910390f35b61020c60048036038101906102079190612b1a565b61065c565b005b61022860048036038101906102239190612bd5565b610676565b005b610232610717565b005b61024e60048036038101906102499190612d67565b610729565b60405161025b9190612e9d565b60405180910390f35b61027e600480360381019061027991906128e3565b610842565b60405161028b9190612739565b60405180910390f35b61029c610856565b6040516102a99190612739565b60405180910390f35b6102cc60048036038101906102c79190612ebf565b61086d565b005b6102d661090a565b005b6102f260048036038101906102ed9190612f4a565b61091e565b005b6102fc610938565b005b61030661094a565b6040516103139190612fdc565b60405180910390f35b61033660048036038101906103319190613023565b610974565b005b610352600480360381019061034d91906128e3565b61098a565b60405161035f919061267e565b60405180910390f35b6103706109a7565b60405161037d919061267e565b60405180910390f35b6103a0600480360381019061039b9190613063565b6109af565b6040516103ad9190612739565b60405180910390f35b6103d060048036038101906103cb91906130a3565b610a43565b005b6103ec60048036038101906103e7919061313a565b610ae4565b005b61040860048036038101906104039190613167565b610b67565b005b60008073ffffffffffffffffffffffffffffffffffffffff168373ffffffffffffffffffffffffffffffffffffffff160361047a576040517f08c379a00000000000000000000000000000000000000000000000000000000081526004016104719061322c565b60405180910390fd5b60008083815260200190815260200160002060008473ffffffffffffffffffffffffffffffffffffffff1673ffffffffffffffffffffffffffffffffffffffff16815260200190815260200160002054905092915050565b60007fd9b67a26000000000000000000000000000000000000000000000000000000007bffffffffffffffffffffffffffffffffffffffffffffffffffffffff1916827bffffffffffffffffffffffffffffffffffffffffffffffffffffffff1916148061059d57507f0e89341c000000000000000000000000000000000000000000000000000000007bffffffffffffffffffffffffffffffffffffffffffffffffffffffff1916827bffffffffffffffffffffffffffffffffffffffffffffffffffffffff1916145b806105ad57506105ac82610c04565b5b9050919050565b6105bc610c6e565b6105c581610cec565b50565b6060600280546105d79061327b565b80601f01602080910402602001604051908101604052809291908181526020018280546106039061327b565b80156106505780601f1061062557610100808354040283529160200191610650565b820191906000526020600020905b81548152906001019060200180831161063357829003601f168201915b50505050509050919050565b610664610c6e565b61067084848484610cff565b50505050565b61067e610f2b565b73ffffffffffffffffffffffffffffffffffffffff168573ffffffffffffffffffffffffffffffffffffffff1614806106c457506106c3856106be610f2b565b6109af565b5b610703576040517f08c379a00000000000000000000000000000000000000000000000000000000081526004016106fa9061331e565b60405180910390fd5b6107108585858585610f33565b5050505050565b61071f610c6e565b610727611254565b565b6060815183511461076f576040517f08c379a0000000000000000000000000000000000000000000000000000000008152600401610766906133b0565b60405180910390fd5b6000835167ffffffffffffffff81111561078c5761078b61276f565b5b6040519080825280602002602001820160405280156107ba5781602001602082028036833780820191505090505b50905060005b8451811015610837576108078582815181106107df576107de6133d0565b5b60200260200101518583815181106107fa576107f96133d0565b5b602002602001015161040a565b82828151811061081a576108196133d0565b5b602002602001018181525050806108309061342e565b90506107c0565b508091505092915050565b60008061084e8361098a565b119050919050565b6000600360149054906101000a900460ff16905090565b610875610f2b565b73ffffffffffffffffffffffffffffffffffffffff168373ffffffffffffffffffffffffffffffffffffffff1614806108bb57506108ba836108b5610f2b565b6109af565b5b6108fa576040517f08c379a00000000000000000000000000000000000000000000000000000000081526004016108f19061331e565b60405180910390fd5b6109058383836112b7565b505050565b610912610c6e565b61091c6000611585565b565b610926610c6e565b6109328484848461164b565b50505050565b610940610c6e565b6109486117fb565b565b6000600360009054906101000a900473ffffffffffffffffffffffffffffffffffffffff16905090565b61098661097f610f2b565b838361185e565b5050565b600060046000838152602001908152602001600020549050919050565b600044905090565b6000600160008473ffffffffffffffffffffffffffffffffffffffff1673ffffffffffffffffffffffffffffffffffffffff16815260200190815260200160002060008373ffffffffffffffffffffffffffffffffffffffff1673ffffffffffffffffffffffffffffffffffffffff16815260200190815260200160002060009054906101000a900460ff16905092915050565b610a4b610f2b565b73ffffffffffffffffffffffffffffffffffffffff168573ffffffffffffffffffffffffffffffffffffffff161480610a915750610a9085610a8b610f2b565b6109af565b5b610ad0576040517f08c379a0000000000000000000000000000000000000000000000000000000008152600401610ac79061331e565b60405180910390fd5b610add85858585856119ca565b5050505050565b610aec610c6e565b600073ffffffffffffffffffffffffffffffffffffffff168173ffffffffffffffffffffffffffffffffffffffff1603610b5b576040517f08c379a0000000000000000000000000000000000000000000000000000000008152600401610b52906134e8565b60405180910390fd5b610b6481611585565b50565b610b6f610f2b565b73ffffffffffffffffffffffffffffffffffffffff168373ffffffffffffffffffffffffffffffffffffffff161480610bb55750610bb483610baf610f2b565b6109af565b5b610bf4576040517f08c379a0000000000000000000000000000000000000000000000000000000008152600401610beb9061331e565b60405180910390fd5b610bff838383611c65565b505050565b60007f01ffc9a7000000000000000000000000000000000000000000000000000000007bffffffffffffffffffffffffffffffffffffffffffffffffffffffff1916827bffffffffffffffffffffffffffffffffffffffffffffffffffffffff1916149050919050565b610c76610f2b565b73ffffffffffffffffffffffffffffffffffffffff16610c9461094a565b73ffffffffffffffffffffffffffffffffffffffff1614610cea576040517f08c379a0000000000000000000000000000000000000000000000000000000008152600401610ce190613554565b60405180910390fd5b565b8060029081610cfb9190613720565b5050565b600073ffffffffffffffffffffffffffffffffffffffff168473ffffffffffffffffffffffffffffffffffffffff1603610d6e576040517f08c379a0000000000000000000000000000000000000000000000000000000008152600401610d6590613864565b60405180910390fd5b8151835114610db2576040517f08c379a0000000000000000000000000000000000000000000000000000000008152600401610da9906138f6565b60405180910390fd5b6000610dbc610f2b565b9050610dcd81600087878787611eab565b60005b8451811015610e8657838181518110610dec57610deb6133d0565b5b6020026020010151600080878481518110610e0a57610e096133d0565b5b6020026020010151815260200190815260200160002060008873ffffffffffffffffffffffffffffffffffffffff1673ffffffffffffffffffffffffffffffffffffffff1681526020019081526020016000206000828254610e6c9190613916565b925050819055508080610e7e9061342e565b915050610dd0565b508473ffffffffffffffffffffffffffffffffffffffff16600073ffffffffffffffffffffffffffffffffffffffff168273ffffffffffffffffffffffffffffffffffffffff167f4a39dc06d4c0dbc64b70af90fd698a233a518aa5d07e595d983b8c0526c8f7fb8787604051610efe92919061394a565b60405180910390a4610f1581600087878787611ec9565b610f2481600087878787611ed1565b5050505050565b600033905090565b8151835114610f77576040517f08c379a0000000000000000000000000000000000000000000000000000000008152600401610f6e906138f6565b60405180910390fd5b600073ffffffffffffffffffffffffffffffffffffffff168473ffffffffffffffffffffffffffffffffffffffff1603610fe6576040517f08c379a0000000000000000000000000000000000000000000000000000000008152600401610fdd906139f3565b60405180910390fd5b6000610ff0610f2b565b9050611000818787878787611eab565b60005b84518110156111b1576000858281518110611021576110206133d0565b5b6020026020010151905060008583815181106110405761103f6133d0565b5b60200260200101519050600080600084815260200190815260200160002060008b73ffffffffffffffffffffffffffffffffffffffff1673ffffffffffffffffffffffffffffffffffffffff168152602001908152602001600020549050818110156110e1576040517f08c379a00000000000000000000000000000000000000000000000000000000081526004016110d890613a85565b60405180910390fd5b81810360008085815260200190815260200160002060008c73ffffffffffffffffffffffffffffffffffffffff1673ffffffffffffffffffffffffffffffffffffffff168152602001908152602001600020819055508160008085815260200190815260200160002060008b73ffffffffffffffffffffffffffffffffffffffff1673ffffffffffffffffffffffffffffffffffffffff16815260200190815260200160002060008282546111969190613916565b92505081905550505050806111aa9061342e565b9050611003565b508473ffffffffffffffffffffffffffffffffffffffff168673ffffffffffffffffffffffffffffffffffffffff168273ffffffffffffffffffffffffffffffffffffffff167f4a39dc06d4c0dbc64b70af90fd698a233a518aa5d07e595d983b8c0526c8f7fb878760405161122892919061394a565b60405180910390a461123e818787878787611ec9565b61124c818787878787611ed1565b505050505050565b61125c6120a8565b6000600360146101000a81548160ff0219169083151502179055507f5db9ee0a495bf2e6ff9c91a7834c1ba4fdd244a5e8aa4e537bd38aeae4b073aa6112a0610f2b565b6040516112ad9190612fdc565b60405180910390a1565b600073ffffffffffffffffffffffffffffffffffffffff168373ffffffffffffffffffffffffffffffffffffffff1603611326576040517f08c379a000000000000000000000000000000000000000000000000000000000815260040161131d90613b17565b60405180910390fd5b805182511461136a576040517f08c379a0000000000000000000000000000000000000000000000000000000008152600401611361906138f6565b60405180910390fd5b6000611374610f2b565b905061139481856000868660405180602001604052806000815250611eab565b60005b83518110156114e15760008482815181106113b5576113b46133d0565b5b6020026020010151905060008483815181106113d4576113d36133d0565b5b60200260200101519050600080600084815260200190815260200160002060008973ffffffffffffffffffffffffffffffffffffffff1673ffffffffffffffffffffffffffffffffffffffff16815260200190815260200160002054905081811015611475576040517f08c379a000000000000000000000000000000000000000000000000000000000815260040161146c90613ba9565b60405180910390fd5b81810360008085815260200190815260200160002060008a73ffffffffffffffffffffffffffffffffffffffff1673ffffffffffffffffffffffffffffffffffffffff1681526020019081526020016000208190555050505080806114d99061342e565b915050611397565b50600073ffffffffffffffffffffffffffffffffffffffff168473ffffffffffffffffffffffffffffffffffffffff168273ffffffffffffffffffffffffffffffffffffffff167f4a39dc06d4c0dbc64b70af90fd698a233a518aa5d07e595d983b8c0526c8f7fb868660405161155992919061394a565b60405180910390a461157f81856000868660405180602001604052806000815250611ec9565b50505050565b6000600360009054906101000a900473ffffffffffffffffffffffffffffffffffffffff16905081600360006101000a81548173ffffffffffffffffffffffffffffffffffffffff021916908373ffffffffffffffffffffffffffffffffffffffff1602179055508173ffffffffffffffffffffffffffffffffffffffff168173ffffffffffffffffffffffffffffffffffffffff167f8be0079c531659141344cd1fd0a4f28419497f9722a3daafe3b4186f6b6457e060405160405180910390a35050565b600073ffffffffffffffffffffffffffffffffffffffff168473ffffffffffffffffffffffffffffffffffffffff16036116ba576040517f08c379a00000000000000000000000000000000000000000000000000000000081526004016116b190613864565b60405180910390fd5b60006116c4610f2b565b905060006116d1856120f1565b905060006116de856120f1565b90506116ef83600089858589611eab565b8460008088815260200190815260200160002060008973ffffffffffffffffffffffffffffffffffffffff1673ffffffffffffffffffffffffffffffffffffffff168152602001908152602001600020600082825461174e9190613916565b925050819055508673ffffffffffffffffffffffffffffffffffffffff16600073ffffffffffffffffffffffffffffffffffffffff168473ffffffffffffffffffffffffffffffffffffffff167fc3d58168c5ae7397731d063d5bbf3d657854427343f4c083240f7aacaa2d0f6289896040516117cc929190613bc9565b60405180910390a46117e383600089858589611ec9565b6117f28360008989898961216b565b50505050505050565b611803612342565b6001600360146101000a81548160ff0219169083151502179055507f62e78cea01bee320cd4e420270b5ea74000d11b0c9f74754ebdbfc544b05a258611847610f2b565b6040516118549190612fdc565b60405180910390a1565b8173ffffffffffffffffffffffffffffffffffffffff168373ffffffffffffffffffffffffffffffffffffffff16036118cc576040517f08c379a00000000000000000000000000000000000000000000000000000000081526004016118c390613c64565b60405180910390fd5b80600160008573ffffffffffffffffffffffffffffffffffffffff1673ffffffffffffffffffffffffffffffffffffffff16815260200190815260200160002060008473ffffffffffffffffffffffffffffffffffffffff1673ffffffffffffffffffffffffffffffffffffffff16815260200190815260200160002060006101000a81548160ff0219169083151502179055508173ffffffffffffffffffffffffffffffffffffffff168373ffffffffffffffffffffffffffffffffffffffff167f17307eab39ab6107e8899845ad3d59bd9653f200f220920489ca2b5937696c31836040516119bd9190612739565b60405180910390a3505050565b600073ffffffffffffffffffffffffffffffffffffffff168473ffffffffffffffffffffffffffffffffffffffff1603611a39576040517f08c379a0000000000000000000000000000000000000000000000000000000008152600401611a30906139f3565b60405180910390fd5b6000611a43610f2b565b90506000611a50856120f1565b90506000611a5d856120f1565b9050611a6d838989858589611eab565b600080600088815260200190815260200160002060008a73ffffffffffffffffffffffffffffffffffffffff1673ffffffffffffffffffffffffffffffffffffffff16815260200190815260200160002054905085811015611b04576040517f08c379a0000000000000000000000000000000000000000000000000000000008152600401611afb90613a85565b60405180910390fd5b85810360008089815260200190815260200160002060008b73ffffffffffffffffffffffffffffffffffffffff1673ffffffffffffffffffffffffffffffffffffffff168152602001908152602001600020819055508560008089815260200190815260200160002060008a73ffffffffffffffffffffffffffffffffffffffff1673ffffffffffffffffffffffffffffffffffffffff1681526020019081526020016000206000828254611bb99190613916565b925050819055508773ffffffffffffffffffffffffffffffffffffffff168973ffffffffffffffffffffffffffffffffffffffff168573ffffffffffffffffffffffffffffffffffffffff167fc3d58168c5ae7397731d063d5bbf3d657854427343f4c083240f7aacaa2d0f628a8a604051611c36929190613bc9565b60405180910390a4611c4c848a8a86868a611ec9565b611c5a848a8a8a8a8a61216b565b505050505050505050565b600073ffffffffffffffffffffffffffffffffffffffff168373ffffffffffffffffffffffffffffffffffffffff1603611cd4576040517f08c379a0000000000000000000000000000000000000000000000000000000008152600401611ccb90613b17565b60405180910390fd5b6000611cde610f2b565b90506000611ceb846120f1565b90506000611cf8846120f1565b9050611d1883876000858560405180602001604052806000815250611eab565b600080600087815260200190815260200160002060008873ffffffffffffffffffffffffffffffffffffffff1673ffffffffffffffffffffffffffffffffffffffff16815260200190815260200160002054905084811015611daf576040517f08c379a0000000000000000000000000000000000000000000000000000000008152600401611da690613ba9565b60405180910390fd5b84810360008088815260200190815260200160002060008973ffffffffffffffffffffffffffffffffffffffff1673ffffffffffffffffffffffffffffffffffffffff16815260200190815260200160002081905550600073ffffffffffffffffffffffffffffffffffffffff168773ffffffffffffffffffffffffffffffffffffffff168573ffffffffffffffffffffffffffffffffffffffff167fc3d58168c5ae7397731d063d5bbf3d657854427343f4c083240f7aacaa2d0f628989604051611e7c929190613bc9565b60405180910390a4611ea284886000868660405180602001604052806000815250611ec9565b50505050505050565b611eb3612342565b611ec186868686868661238c565b505050505050565b505050505050565b611ef08473ffffffffffffffffffffffffffffffffffffffff1661255c565b156120a0578373ffffffffffffffffffffffffffffffffffffffff1663bc197c8187878686866040518663ffffffff1660e01b8152600401611f36959493929190613cd9565b6020604051808303816000875af1925050508015611f7257506040513d601f19601f82011682018060405250810190611f6f9190613d56565b60015b61201757611f7e613d90565b806308c379a003611fda5750611f92613db2565b80611f9d5750611fdc565b806040517f08c379a0000000000000000000000000000000000000000000000000000000008152600401611fd1919061298f565b60405180910390fd5b505b6040517f08c379a000000000000000000000000000000000000000000000000000000000815260040161200e90613eb4565b60405180910390fd5b63bc197c8160e01b7bffffffffffffffffffffffffffffffffffffffffffffffffffffffff1916817bffffffffffffffffffffffffffffffffffffffffffffffffffffffff19161461209e576040517f08c379a000000000000000000000000000000000000000000000000000000000815260040161209590613f46565b60405180910390fd5b505b505050505050565b6120b0610856565b6120ef576040517f08c379a00000000000000000000000000000000000000000000000000000000081526004016120e690613fb2565b60405180910390fd5b565b60606000600167ffffffffffffffff8111156121105761210f61276f565b5b60405190808252806020026020018201604052801561213e5781602001602082028036833780820191505090505b5090508281600081518110612156576121556133d0565b5b60200260200101818152505080915050919050565b61218a8473ffffffffffffffffffffffffffffffffffffffff1661255c565b1561233a578373ffffffffffffffffffffffffffffffffffffffff1663f23a6e6187878686866040518663ffffffff1660e01b81526004016121d0959493929190613fd2565b6020604051808303816000875af192505050801561220c57506040513d601f19601f820116820180604052508101906122099190613d56565b60015b6122b157612218613d90565b806308c379a003612274575061222c613db2565b806122375750612276565b806040517f08c379a000000000000000000000000000000000000000000000000000000000815260040161226b919061298f565b60405180910390fd5b505b6040517f08c379a00000000000000000000000000000000000000000000000000000000081526004016122a890613eb4565b60405180910390fd5b63f23a6e6160e01b7bffffffffffffffffffffffffffffffffffffffffffffffffffffffff1916817bffffffffffffffffffffffffffffffffffffffffffffffffffffffff191614612338576040517f08c379a000000000000000000000000000000000000000000000000000000000815260040161232f90613f46565b60405180910390fd5b505b505050505050565b61234a610856565b1561238a576040517f08c379a000000000000000000000000000000000000000000000000000000000815260040161238190614078565b60405180910390fd5b565b61239a86868686868661257f565b600073ffffffffffffffffffffffffffffffffffffffff168573ffffffffffffffffffffffffffffffffffffffff160361244b5760005b8351811015612449578281815181106123ed576123ec6133d0565b5b60200260200101516004600086848151811061240c5761240b6133d0565b5b6020026020010151815260200190815260200160002060008282546124319190613916565b92505081905550806124429061342e565b90506123d1565b505b600073ffffffffffffffffffffffffffffffffffffffff168473ffffffffffffffffffffffffffffffffffffffff16036125545760005b83518110156125525760008482815181106124a05761249f6133d0565b5b6020026020010151905060008483815181106124bf576124be6133d0565b5b6020026020010151905060006004600084815260200190815260200160002054905081811015612524576040517f08c379a000000000000000000000000000000000000000000000000000000000815260040161251b9061410a565b60405180910390fd5b81810360046000858152602001908152602001600020819055505050508061254b9061342e565b9050612482565b505b505050505050565b6000808273ffffffffffffffffffffffffffffffffffffffff163b119050919050565b505050505050565b6000604051905090565b600080fd5b600080fd5b600073ffffffffffffffffffffffffffffffffffffffff82169050919050565b60006125c68261259b565b9050919050565b6125d6816125bb565b81146125e157600080fd5b50565b6000813590506125f3816125cd565b92915050565b6000819050919050565b61260c816125f9565b811461261757600080fd5b50565b60008135905061262981612603565b92915050565b6000806040838503121561264657612645612591565b5b6000612654858286016125e4565b92505060206126658582860161261a565b9150509250929050565b612678816125f9565b82525050565b6000602082019050612693600083018461266f565b92915050565b60007fffffffff0000000000000000000000000000000000000000000000000000000082169050919050565b6126ce81612699565b81146126d957600080fd5b50565b6000813590506126eb816126c5565b92915050565b60006020828403121561270757612706612591565b5b6000612715848285016126dc565b91505092915050565b60008115159050919050565b6127338161271e565b82525050565b600060208201905061274e600083018461272a565b92915050565b600080fd5b600080fd5b6000601f19601f8301169050919050565b7f4e487b7100000000000000000000000000000000000000000000000000000000600052604160045260246000fd5b6127a78261275e565b810181811067ffffffffffffffff821117156127c6576127c561276f565b5b80604052505050565b60006127d9612587565b90506127e5828261279e565b919050565b600067ffffffffffffffff8211156128055761280461276f565b5b61280e8261275e565b9050602081019050919050565b82818337600083830152505050565b600061283d612838846127ea565b6127cf565b90508281526020810184848401111561285957612858612759565b5b61286484828561281b565b509392505050565b600082601f83011261288157612880612754565b5b813561289184826020860161282a565b91505092915050565b6000602082840312156128b0576128af612591565b5b600082013567ffffffffffffffff8111156128ce576128cd612596565b5b6128da8482850161286c565b91505092915050565b6000602082840312156128f9576128f8612591565b5b60006129078482850161261a565b91505092915050565b600081519050919050565b600082825260208201905092915050565b60005b8381101561294a57808201518184015260208101905061292f565b60008484015250505050565b600061296182612910565b61296b818561291b565b935061297b81856020860161292c565b6129848161275e565b840191505092915050565b600060208201905081810360008301526129a98184612956565b905092915050565b600067ffffffffffffffff8211156129cc576129cb61276f565b5b602082029050602081019050919050565b600080fd5b60006129f56129f0846129b1565b6127cf565b90508083825260208201905060208402830185811115612a1857612a176129dd565b5b835b81811015612a415780612a2d888261261a565b845260208401935050602081019050612a1a565b5050509392505050565b600082601f830112612a6057612a5f612754565b5b8135612a708482602086016129e2565b91505092915050565b600067ffffffffffffffff821115612a9457612a9361276f565b5b612a9d8261275e565b9050602081019050919050565b6000612abd612ab884612a79565b6127cf565b905082815260208101848484011115612ad957612ad8612759565b5b612ae484828561281b565b509392505050565b600082601f830112612b0157612b00612754565b5b8135612b11848260208601612aaa565b91505092915050565b60008060008060808587031215612b3457612b33612591565b5b6000612b42878288016125e4565b945050602085013567ffffffffffffffff811115612b6357612b62612596565b5b612b6f87828801612a4b565b935050604085013567ffffffffffffffff811115612b9057612b8f612596565b5b612b9c87828801612a4b565b925050606085013567ffffffffffffffff811115612bbd57612bbc612596565b5b612bc987828801612aec565b91505092959194509250565b600080600080600060a08688031215612bf157612bf0612591565b5b6000612bff888289016125e4565b9550506020612c10888289016125e4565b945050604086013567ffffffffffffffff811115612c3157612c30612596565b5b612c3d88828901612a4b565b935050606086013567ffffffffffffffff811115612c5e57612c5d612596565b5b612c6a88828901612a4b565b925050608086013567ffffffffffffffff811115612c8b57612c8a612596565b5b612c9788828901612aec565b9150509295509295909350565b600067ffffffffffffffff821115612cbf57612cbe61276f565b5b602082029050602081019050919050565b6000612ce3612cde84612ca4565b6127cf565b90508083825260208201905060208402830185811115612d0657612d056129dd565b5b835b81811015612d2f5780612d1b88826125e4565b845260208401935050602081019050612d08565b5050509392505050565b600082601f830112612d4e57612d4d612754565b5b8135612d5e848260208601612cd0565b91505092915050565b60008060408385031215612d7e57612d7d612591565b5b600083013567ffffffffffffffff811115612d9c57612d9b612596565b5b612da885828601612d39565b925050602083013567ffffffffffffffff811115612dc957612dc8612596565b5b612dd585828601612a4b565b9150509250929050565b600081519050919050565b600082825260208201905092915050565b6000819050602082019050919050565b612e14816125f9565b82525050565b6000612e268383612e0b565b60208301905092915050565b6000602082019050919050565b6000612e4a82612ddf565b612e548185612dea565b9350612e5f83612dfb565b8060005b83811015612e90578151612e778882612e1a565b9750612e8283612e32565b925050600181019050612e63565b5085935050505092915050565b60006020820190508181036000830152612eb78184612e3f565b905092915050565b600080600060608486031215612ed857612ed7612591565b5b6000612ee6868287016125e4565b935050602084013567ffffffffffffffff811115612f0757612f06612596565b5b612f1386828701612a4b565b925050604084013567ffffffffffffffff811115612f3457612f33612596565b5b612f4086828701612a4b565b9150509250925092565b60008060008060808587031215612f6457612f63612591565b5b6000612f72878288016125e4565b9450506020612f838782880161261a565b9350506040612f948782880161261a565b925050606085013567ffffffffffffffff811115612fb557612fb4612596565b5b612fc187828801612aec565b91505092959194509250565b612fd6816125bb565b82525050565b6000602082019050612ff16000830184612fcd565b92915050565b6130008161271e565b811461300b57600080fd5b50565b60008135905061301d81612ff7565b92915050565b6000806040838503121561303a57613039612591565b5b6000613048858286016125e4565b92505060206130598582860161300e565b9150509250929050565b6000806040838503121561307a57613079612591565b5b6000613088858286016125e4565b9250506020613099858286016125e4565b9150509250929050565b600080600080600060a086880312156130bf576130be612591565b5b60006130cd888289016125e4565b95505060206130de888289016125e4565b94505060406130ef8882890161261a565b93505060606131008882890161261a565b925050608086013567ffffffffffffffff81111561312157613120612596565b5b61312d88828901612aec565b9150509295509295909350565b6000602082840312156131505761314f612591565b5b600061315e848285016125e4565b91505092915050565b6000806000606084860312156131805761317f612591565b5b600061318e868287016125e4565b935050602061319f8682870161261a565b92505060406131b08682870161261a565b9150509250925092565b7f455243313135353a2061646472657373207a65726f206973206e6f742061207660008201527f616c6964206f776e657200000000000000000000000000000000000000000000602082015250565b6000613216602a8361291b565b9150613221826131ba565b604082019050919050565b6000602082019050818103600083015261324581613209565b9050919050565b7f4e487b7100000000000000000000000000000000000000000000000000000000600052602260045260246000fd5b6000600282049050600182168061329357607f821691505b6020821081036132a6576132a561324c565b5b50919050565b7f455243313135353a2063616c6c6572206973206e6f7420746f6b656e206f776e60008201527f6572206f7220617070726f766564000000000000000000000000000000000000602082015250565b6000613308602e8361291b565b9150613313826132ac565b604082019050919050565b60006020820190508181036000830152613337816132fb565b9050919050565b7f455243313135353a206163636f756e747320616e6420696473206c656e67746860008201527f206d69736d617463680000000000000000000000000000000000000000000000602082015250565b600061339a60298361291b565b91506133a58261333e565b604082019050919050565b600060208201905081810360008301526133c98161338d565b9050919050565b7f4e487b7100000000000000000000000000000000000000000000000000000000600052603260045260246000fd5b7f4e487b7100000000000000000000000000000000000000000000000000000000600052601160045260246000fd5b6000613439826125f9565b91507fffffffffffffffffffffffffffffffffffffffffffffffffffffffffffffffff820361346b5761346a6133ff565b5b600182019050919050565b7f4f776e61626c653a206e6577206f776e657220697320746865207a65726f206160008201527f6464726573730000000000000000000000000000000000000000000000000000602082015250565b60006134d260268361291b565b91506134dd82613476565b604082019050919050565b60006020820190508181036000830152613501816134c5565b9050919050565b7f4f776e61626c653a2063616c6c6572206973206e6f7420746865206f776e6572600082015250565b600061353e60208361291b565b915061354982613508565b602082019050919050565b6000602082019050818103600083015261356d81613531565b9050919050565b60008190508160005260206000209050919050565b60006020601f8301049050919050565b600082821b905092915050565b6000600883026135d67fffffffffffffffffffffffffffffffffffffffffffffffffffffffffffffffff82613599565b6135e08683613599565b95508019841693508086168417925050509392505050565b6000819050919050565b600061361d613618613613846125f9565b6135f8565b6125f9565b9050919050565b6000819050919050565b61363783613602565b61364b61364382613624565b8484546135a6565b825550505050565b600090565b613660613653565b61366b81848461362e565b505050565b5b8181101561368f57613684600082613658565b600181019050613671565b5050565b601f8211156136d4576136a581613574565b6136ae84613589565b810160208510156136bd578190505b6136d16136c985613589565b830182613670565b50505b505050565b600082821c905092915050565b60006136f7600019846008026136d9565b1980831691505092915050565b600061371083836136e6565b9150826002028217905092915050565b61372982612910565b67ffffffffffffffff8111156137425761374161276f565b5b61374c825461327b565b613757828285613693565b600060209050601f83116001811461378a5760008415613778578287015190505b6137828582613704565b8655506137ea565b601f19841661379886613574565b60005b828110156137c05784890151825560018201915060208501945060208101905061379b565b868310156137dd57848901516137d9601f8916826136e6565b8355505b6001600288020188555050505b505050505050565b7f455243313135353a206d696e7420746f20746865207a65726f2061646472657360008201527f7300000000000000000000000000000000000000000000000000000000000000602082015250565b600061384e60218361291b565b9150613859826137f2565b604082019050919050565b6000602082019050818103600083015261387d81613841565b9050919050565b7f455243313135353a2069647320616e6420616d6f756e7473206c656e6774682060008201527f6d69736d61746368000000000000000000000000000000000000000000000000602082015250565b60006138e060288361291b565b91506138eb82613884565b604082019050919050565b6000602082019050818103600083015261390f816138d3565b9050919050565b6000613921826125f9565b915061392c836125f9565b9250828201905080821115613944576139436133ff565b5b92915050565b600060408201905081810360008301526139648185612e3f565b905081810360208301526139788184612e3f565b90509392505050565b7f455243313135353a207472616e7366657220746f20746865207a65726f20616460008201527f6472657373000000000000000000000000000000000000000000000000000000602082015250565b60006139dd60258361291b565b91506139e882613981565b604082019050919050565b60006020820190508181036000830152613a0c816139d0565b9050919050565b7f455243313135353a20696e73756666696369656e742062616c616e636520666f60008201527f72207472616e7366657200000000000000000000000000000000000000000000602082015250565b6000613a6f602a8361291b565b9150613a7a82613a13565b604082019050919050565b60006020820190508181036000830152613a9e81613a62565b9050919050565b7f455243313135353a206275726e2066726f6d20746865207a65726f206164647260008201527f6573730000000000000000000000000000000000000000000000000000000000602082015250565b6000613b0160238361291b565b9150613b0c82613aa5565b604082019050919050565b60006020820190508181036000830152613b3081613af4565b9050919050565b7f455243313135353a206275726e20616d6f756e7420657863656564732062616c60008201527f616e636500000000000000000000000000000000000000000000000000000000602082015250565b6000613b9360248361291b565b9150613b9e82613b37565b604082019050919050565b60006020820190508181036000830152613bc281613b86565b9050919050565b6000604082019050613bde600083018561266f565b613beb602083018461266f565b9392505050565b7f455243313135353a2073657474696e6720617070726f76616c2073746174757360008201527f20666f722073656c660000000000000000000000000000000000000000000000602082015250565b6000613c4e60298361291b565b9150613c5982613bf2565b604082019050919050565b60006020820190508181036000830152613c7d81613c41565b9050919050565b600081519050919050565b600082825260208201905092915050565b6000613cab82613c84565b613cb58185613c8f565b9350613cc581856020860161292c565b613cce8161275e565b840191505092915050565b600060a082019050613cee6000830188612fcd565b613cfb6020830187612fcd565b8181036040830152613d0d8186612e3f565b90508181036060830152613d218185612e3f565b90508181036080830152613d358184613ca0565b90509695505050505050565b600081519050613d50816126c5565b92915050565b600060208284031215613d6c57613d6b612591565b5b6000613d7a84828501613d41565b91505092915050565b60008160e01c9050919050565b600060033d1115613daf5760046000803e613dac600051613d83565b90505b90565b600060443d10613e3f57613dc4612587565b60043d036004823e80513d602482011167ffffffffffffffff82111715613dec575050613e3f565b808201805167ffffffffffffffff811115613e0a5750505050613e3f565b80602083010160043d038501811115613e27575050505050613e3f565b613e368260200185018661279e565b82955050505050505b90565b7f455243313135353a207472616e7366657220746f206e6f6e2d4552433131353560008201527f526563656976657220696d706c656d656e746572000000000000000000000000602082015250565b6000613e9e60348361291b565b9150613ea982613e42565b604082019050919050565b60006020820190508181036000830152613ecd81613e91565b9050919050565b7f455243313135353a204552433131353552656365697665722072656a6563746560008201527f6420746f6b656e73000000000000000000000000000000000000000000000000602082015250565b6000613f3060288361291b565b9150613f3b82613ed4565b604082019050919050565b60006020820190508181036000830152613f5f81613f23565b9050919050565b7f5061757361626c653a206e6f7420706175736564000000000000000000000000600082015250565b6000613f9c60148361291b565b9150613fa782613f66565b602082019050919050565b60006020820190508181036000830152613fcb81613f8f565b9050919050565b600060a082019050613fe76000830188612fcd565b613ff46020830187612fcd565b614001604083018661266f565b61400e606083018561266f565b81810360808301526140208184613ca0565b90509695505050505050565b7f5061757361626c653a2070617573656400000000000000000000000000000000600082015250565b600061406260108361291b565b915061406d8261402c565b602082019050919050565b6000602082019050818103600083015261409181614055565b9050919050565b7f455243313135353a206275726e20616d6f756e74206578636565647320746f7460008201527f616c537570706c79000000000000000000000000000000000000000000000000602082015250565b60006140f460288361291b565b91506140ff82614098565b604082019050919050565b60006020820190508181036000830152614123816140e7565b905091905056fea2646970667358221220b557cb7dc40ecbebbd8439f3cdcbace598bb4242a16fbe21500a4881aaa2a34464736f6c63430008110033",
  "linkReferences": {},
  "deployedLinkReferences": {}
}